:100000000C94F5020C94A0090C9479090C945209F3
:100010000C942B090C941D030C941D030C940409DF
:100020000C941D030C941D030C94D7030C94BF0572
:100030000C941D030C941D030C941D030C941D03C0
:100040000C941D030C941D030C941D030C941D03B0
:100050000C941D030C941D030C941D030C94BA08FE
:100060000C941D030C941D030C941D030C941D0390
:100070000C941D030C941D030C941D030C941D0380
:100080000C941D030C941D030C941D030C941D0370
:100090000C941D030C941D030C941D030C941D0360
:1000A0000C941D030C941D030C941D03AF03B203A9
:1000B000A103A503AB03D303D303D303B603BA034E
:1000C000BE03C403C803D303CE03880DB60D160EBA
:1000D000E00EF00E780FEF10FD10111125113911FF
:1000E0004D116111751189119D11B11105A84CCDEA
:1000F000B2D44EB93836A9020C50B9918688083C62
:10010000A6AAAA2ABE000000803F07060504010037
:10011000080A0B0C0D0900000000240027002A002B
:100120002D00300000000000250028002B002E00CC
:1001300031000000000200090F0000030401000C60
:1001400000000000000000000000000000000000AF
:1001500000080B0002020201000904000001020273
:1001600000000524001001052401010104240206F9
:100170000524060001070581031000400904010061
:10018000020A000000070502024000000705830282
:100190004000000403090412010002EF02014003C1
:1001A0002A3680000101020301556E6B6E6F776E77
:1001B0000041726475696E6F204C656F6E61726488
:1001C0006F0005010904A101850305091901292012
:1001D000150025017501952081020501A100093056
:1001E000093116008026FF7F7510950281020933C0
:1001F000093409320935150026FF03350046FF038F
:10020000751095048102C005010939950175041521
:10021000002507463B016514814275049501810163
:1002200055006500050F0921A1028501092215016C
:100230002507350145077508950191020925A10299
:1002400009260931094009410943094215012506DA
:1002500035014506750895019100C0095015002625
:100260003175350046983A66031055FD75109501B5
:1002700091020954095126FF0046FF7F7508950237
:10028000910255006600000952150026102735001E
:10029000461027751095019102095315012508355F
:1002A0000145087508950191020955A1020501A1B2
:1002B00000093015002501750195019102C0C005A6
:1002C0000F095695019102950691030957A1020B5A
:1002D00001000A000B02000A00651455FE150026F5
:1002E000FF00350047A08C0000650075089502915D
:1002F0000255006500C0C0095AA1028502092215F5
:1003000001250735014507750895019102095B092B
:100310005D26FF00461027750895029102095C09C9
:100320005E66031055FD7508910265005500C00911
:100330005FA10285030922150125073501450775CF
:100340000895019102096036018046FF7F16018001
:1003500026FF7F751091020961096236F0D84610B8
:100360002716F0D8261027950291020963096435F3
:100370000015009102096595019102C0096EA10264
:1003800085040922150125073501450775089501E2
:100390009102097126FF0046102775089501910208
:1003A0000970261027751095019102096F16F0D873
:1003B00036F0D875109501910209721500350027A5
:1003C000FFFF000047FFFF000055FB66031075109C
:1003D0009501910265005500C00973A102850509C8
:1003E0002215012507350145077508950191020978
:1003F0007016F0D826102736F0D8461027751091C1
:1004000002C00977A102850A0922150125073501D5
:1004100045077508950191020978A1020979097AC1
:10042000097B150125039100C0097C150026FF00FA
:1004300046FF009102C0097FA102850109801500D5
:1004400026FF00350046FF0075089501B10209A896
:10045000A1020921095A095F096E097375089505FA
:10046000B102C0250175079501B10309A97501B154
:1004700002C00992A1028502092215012507350152
:100480004507750895018102099409A009A409A6E8
:10049000250145017501950481028103C00996A1DA
:1004A00002850B099709980999099A099B099C15D6
:1004B00000250175019506910295029103C009ABD3
:1004C000A10285440925A1020926093109400941F3
:1004D00009430942150125063501450675089501B0
:1004E000B100C00501093B150026FF00350046FF9D
:1004F0000075089501B102C0050F0990A10285455C
:100500000922150125073501450775089501910256
:10051000C00989A102853309221501250735014546
:100520000775089501B102098BA102098C098D0993
:100530008E150125033501450375089501B100C0ED
:1005400009AC150026FF00350046FF00750895012F
:10055000B102C0097DA1028540097E261027461000
:1005600027751095019102C00600FF0901A102152F
:100570000026FF007508858095080901B102090170
:100580008102858695030901810285909501090103
:10059000B10285EE95080901B102C0C0040802014C
:1005A00010408040102040804080080204018040BC
:1005B0002010020110801020404020000000002385
:1005C00000260029002C002F000404040404030466
:1005D00005020202020403020202020606060606E1
:1005E00006040402020204041C2811241FBECFEFDB
:1005F000DAE0DEBFCDBF11E0A0E0B1E0E2E0FBE574
:1006000002C005900D92A436B107D9F725E0A4E603
:10061000B1E001C01D92A230B207E1F712E0C5EFD0
:10062000D2E004C02197FE010E946D2DC43FD10786
:10063000C9F70E94F4190C947F2D0C94000040918E
:100640002C0250912D0220912A0230912B02421748
:100650005307B4F49091E8009570E1F39091E800AD
:1006600092FD19C08093F10080912C0290912D028F
:1006700001968F739927892B19F48EEF8093E800E8
:1006800080912C0290912D02019690932D028093DF
:100690002C0281E0089580E00895CF92DF92EF92DE
:1006A000FF920F931F93CF93DF931F92CDB7DEB7C7
:1006B000182F062FE42E862F880F8E5F99830E94B5
:1006C0001F0383E00E941F03F12EC12E9981D92EB2
:1006D0008C2D8F19801798F4F601E7FE02C08491E3
:1006E00001C080810E941F03182F80E00E941F0319
:1006F0008123FFEFCF1ADF0A8111EACF01C081E029
:100700000F90DF91CF911F910F91FF90EF90DF90AD
:10071000CF900895615030F02091F100FC012083CA
:100720000196F8CF289884E680932E02089590E0F1
:10073000FC013197EF30F105B0F5EA5AFF4F0C9408
:100740006D2D809180008F7703C0809180008F7D18
:1007500080938000089580918000877FF9CF84B5D1
:100760008F7702C084B58F7D84BD089580919000FD
:100770008F7707C0809190008F7D03C0809190009B
:10078000877F8093900008958091C0008F7703C089
:100790008091C0008F7D8093C00008958091C20039
:1007A000877F8093C200089508950E947A2D1F923A
:1007B0000F920FB60F9211248F939F938091E100B7
:1007C0009091E100937F9093E10083FF0FC010921E
:1007D000E90091E09093EB001092EC0092E390938B
:1007E000ED001092670198E09093F00082FF20C026
:1007F00093E09093E9009091F200992319F09AE325
:100800009093E80090912F02992339F090912F0254
:10081000915090932F02992389F190912E02992360
:1008200039F090912E02915090932E02992341F12C
:1008300084FF10C08091E2008E7E81608093E20090
:100840008091E1008F7E8093E100809165018E7E32
:10085000806111C080FF16C08091E2008E7E8061B1
:100860008093E2008091E1008E7E8093E100809190
:1008700065018E7E81608093650104C05D9ACDCF55
:10088000289AD6CF9F918F910F900FBE0F901F90F7
:100890001895BF92CF92DF92EF92FF920F931F9322
:1008A000CF93DF936C018B01EB019BEFB92E209767
:1008B000C1F07E01C134D1051CF080E4E82EF12C9A
:1008C0008091E80082FFFCCFC8018C1B9D0B6E2D30
:1008D0008C0D9D1D0E948A03B092E800CE19DF099D
:1008E000E6CFC801DF91CF911F910F91FF90EF905C
:1008F000DF90CF90BF900895DF92EF92FF920F9319
:100900001F93CF93DF93D82E8A017B01E40EF51E4F
:10091000EB01CE15DF0571F0D7FE03C0FE01849117
:1009200001C088810E941F0321968111F2CF8FEFB1
:100930009FEF01C0C801DF91CF911F910F91FF90F0
:10094000EF90DF9008952FB7F89487708093E900B7
:100950009091E800892F807295FF04C09091F20079
:1009600080E4891B2FBF08957F928F929F92AF9250
:10097000BF92CF92DF92EF92FF920F931F93CF938C
:10098000DF93C82E8B017A0180916701811103C02A
:100990008FEF9FEF71C08091650180FF05C080914E
:1009A000E00082608093E000CE2DDF2DD12C8AEF15
:1009B000882E8C2D8770B82E8C2D8072A82E8C2DB1
:1009C0008074982E9AE3792E209709F44EC08C2DCE
:1009D0000E94A304282F811106C08A948820C1F2A6
:1009E0000E94ED17F1CF90E0C817D9070CF42C2F17
:1009F0003FB7F894B092E9008091E80085FF33C0DA
:100A0000822F90E0C81BD90BAA2029F02150A8F012
:100A10001092F100FBCFF801C7FE07C0215058F03B
:100A200044914093F1003196F9CF215020F041914B
:100A30004093F100FACF080F191FDD2019F07092D2
:100A4000E8000AC08091E80085FD08C07092E800C7
:100A5000DD24D394209739F0D12C05C0209719F4C8
:100A600091107092E8003FBFAFCFD110B0CF5D982A
:100A700084E680932F02C701DF91CF911F910F91E0
:100A8000FF90EF90DF90CF90BF90AF909F908F90AE
:100A90007F90089590916701992311F057FF03C04B
:100AA0008FEF9FEF08952FB7F89487708093E90038
:100AB0008091F20090E0841795070CF4AC01842F2C
:100AC000FB0194E6815038F0289890932E023091E3
:100AD000F1003193F7CF4115510521F08091F200DB
:100AE000882319F02FBFCA0108958BE68093E80090
:100AF000F9CF8091220281110DC082E080931E0205
:100B000084E080931F02109221021092200281E063
:100B1000809322028EE192E008950F931F93CF936A
:100B2000DF931F92CDB7DEB782E0898342E450E0C5
:100B300061E571E080E80E947C040E947905DC0197
:100B400012960D911C9113970115110569F0D801AA
:100B5000ED91FC910280F381E02DBE016F5F7F4F2C
:100B6000C801099597FF07C089810F90DF91CF9148
:100B70001F910F910895F80100851185E5CF1F920F
:100B80000F920FB60F921124CF92DF92EF92FF9245
:100B90000F931F932F933F934F935F936F937F9385
:100BA0008F939F93AF93BF93EF93FF93CF93DF9375
:100BB000CDB7DEB76C97DEBFCDBF1092E900809154
:100BC000E80083FFE7C168E0CE0145960E948A03F2
:100BD00082EF8093E8008D8987FF05C09091E8003F
:100BE00090FFFCCF03C09EEF9093E800982F907683
:100BF00009F0C6C09E892F89188D91110CC08038CC
:100C000029F4809166018093F10002C01092F100F6
:100C10001092F10042C1422F50E0512B913051F41B
:100C200081113BC14130510509F037C18091660106
:100C30008D7F0BC0933061F481112FC1413051057C
:100C400009F02BC18091660182608093660125C105
:100C5000953041F48091E80080FFFCCF206820931C
:100C6000E3001BC1963009F05FC0EB8CFC8C109246
:100C7000E90010922D0210922C02123091F5109280
:100C80002B0210922A020E948D0599E0BE016F5F2F
:100C90007F4FDB01E92F1D92EA95E9F799831A83CB
:100CA00091E09E8390EA98879AEF998720912C0291
:100CB00030912D02275F3F4F3C832B838D83109211
:100CC000E90010922D0210922C02F0922B02E09279
:100CD0002A0249E050E080E00E947C040E948D05D9
:100CE000DCC0F0922B02E0922A020E947905DC011E
:100CF0001296ED90FC901397E114F10409F4BAC038
:100D0000D701ED91FC910480F581E02DBE016B5E71
:100D10007F4FC7010995009719F00CF0BEC0C1C004
:100D2000F701E084F184E8CF973009F4BAC0983035
:100D300021F481E08093F100B0C0993009F0ADC09A
:100D4000837009F0AEC0E2E0F1E081E021E036E33B
:100D50009081992361F08093E9002093EB009191B9
:100D60009093EC003093ED008F5F873089F78EE72A
:100D70008093EA001092EA008F89809367018DC00A
:100D80008B8D9C8D1092E90010922D0210922C02F6
:100D900090932B0280932A02898D811150C08E89F5
:100DA0009D89913A59F4813209F07BC047E050E0C7
:100DB00063E371E080E00E947C046FC0913209F02F
:100DC00070C0833289F4888D90E0982F88272F890E
:100DD000822BA0E0B0E08093080190930901A093DA
:100DE0000A01B0930B0159C0803239F467E070E01A
:100DF00083E391E00E94490406C0823209F04DC0AD
:100E00008F8980933A0180916401882319F0EEEF75
:100E1000FAE002C0E0E0F8E0809133019091340103
:100E2000A0913501B0913601803B9440A105B105F8
:100E300009F07BC080913A0180FF93C076C00E9488
:100E40007905DC0112960D911C911397011511057E
:100E500041F1D801ED91FC910190F081E02DBE01AE
:100E60006B5E7F4FC8010995811117C0F80100859D
:100E70001185ECCF113009F44EC0133091F48F89F5
:100E8000882309F445C0823081F440E860E181EBB9
:100E900091E00E944D03882321F08EEF8093E800BB
:100EA00079C081E28093EB0075C0813029F440E87D
:100EB00067E089EA91E0EDCF833099F70E947905E8
:100EC000DC011296ED90FC9013978E010F5F1F4F7F
:100ED0006801E114F10479F0D701ED91FC910680ED
:100EE000F781E02DB801C7010995080F111DF70121
:100EF000E084F184EECFD8011C92F601019000202D
:100F0000E9F73197BF016C197D0940E0C601C1CFF7
:100F100063E971E002C067E971E06115710509F2EA
:100F2000FB01449150E080E846CF0FB6F894A895B5
:100F300080916000886180936000109260000FBE15
:100F4000A895EE3F2AE0F20739F08091FE0A9091D1
:100F5000FF0A91838083A1CF1092FF0A1092FE0AAC
:100F60009CCFEE3F8AE0F80731F080819181909329
:100F7000FF0A8093FE0A87E797E7918380839BE0CF
:100F800088E10FB6F894A895809360000FBE909307
:100F9000600083CF6C960FB6F894DEBF0FBECDBF56
:100FA000DF91CF91FF91EF91BF91AF919F918F9181
:100FB0007F916F915F914F913F912F911F910F9171
:100FC000FF90EF90DF90CF900F900FBE0F901F908B
:100FD0001895CF93DF93282F30E0F901EE5CFE4F98
:100FE0008491F901E456FA4FD491F901E753FA4F8D
:100FF000C491CC2391F081110E949703EC2FF0E073
:10100000EE0FFF1FE554FA4FA591B491EC91ED233B
:1010100081E090E021F480E002C080E090E0DF9188
:10102000CF910895862F0C94E9071F93CF93DF93F8
:10103000282F30E0F901EE5CFE4F8491F901E4566F
:10104000FA4FD491F901E753FA4FC491CC23C9F078
:10105000162F81110E949703EC2FF0E0EE0FFF1F77
:10106000EC5DFE4FA591B4918FB7F894111105C0B6
:101070009C91ED2FE095E92302C0EC91ED2BEC93D0
:101080008FBFDF91CF911F910895862F642F0C940D
:101090001508CF93DF9390E0FC01E456FA4F2491BA
:1010A000FC01E753FA4F8491882361F190E0880FA7
:1010B000991FFC01EA5EFE4FC591D491FC01EC5DE5
:1010C000FE4FA591B491611109C09FB7F894888132
:1010D000209582238883EC912E230BC0623061F42B
:1010E0009FB7F8943881822F809583238883EC9171
:1010F0002E2B2C939FBF06C08FB7F894E8812E2B20
:1011000028838FBFDF91CF910895862F642F0C9491
:1011100049083FB7F89480911A0290911B02A09160
:101120001C02B0911D0226B5A89B05C02F3F19F0E7
:101130000196A11DB11D3FBFBA2FA92F982F882757
:10114000820F911DA11DB11DBC01CD0142E0660FB2
:10115000771F881F991F4A95D1F708952FB7F894E4
:1011600060911602709117028091180290911902F5
:101170002FBF08951F920F920FB60F9211242F9335
:101180003F938F939F93AF93BF938091160290915B
:101190001702A0911802B09119023091150223E0B4
:1011A000230F2D3720F40196A11DB11D05C026E89F
:1011B000230F0296A11DB11D2093150280931602E4
:1011C00090931702A0931802B093190280911A020B
:1011D00090911B02A0911C02B0911D020196A11DCD
:1011E000B11D80931A0290931B02A0931C02B0932E
:1011F0001D02BF91AF919F918F913F912F910F90C1
:101200000FBE0F901F9018951F920F920FB60F925E
:1012100011242F933F934F935F936F937F938F93FB
:101220009F93AF93BF93EF93FF93E0911401F091DD
:1012300015010995FF91EF91BF91AF919F918F910A
:101240007F916F915F914F913F912F910F900FBEC2
:101250000F901F9018951F920F920FB60F921124A6
:101260002F933F934F935F936F937F938F939F93AE
:10127000AF93BF93EF93FF93E0911201F0911301AD
:101280000995FF91EF91BF91AF919F918F917F91C0
:101290006F915F914F913F912F910F900FBE0F90E3
:1012A0001F9018951F920F920FB60F9211242F9333
:1012B0003F934F935F936F937F938F939F93AF93DE
:1012C000BF93EF93FF93E0911001F0911101099505
:1012D000FF91EF91BF91AF919F918F917F916F910E
:1012E0005F914F913F912F910F900FBE0F901F90E4
:1012F00018951F920F920FB60F9211242F933F93C0
:101300004F935F936F937F938F939F93AF93BF930D
:10131000EF93FF93E0910E01F0910F010995FF917A
:10132000EF91BF91AF919F918F917F916F915F915D
:101330004F913F912F910F900FBE0F901F901895D6
:101340001F920F920FB60F9211242F933F934F933A
:101350005F936F937F938F939F93AF93BF93EF931D
:10136000FF93E0910C01F0910D010995FF91EF9130
:10137000BF91AF919F918F917F916F915F914F91AD
:101380003F912F910F900FBE0F901F9018952F92A5
:101390003F924F925F926F927F928F929F92AF9205
:1013A000BF92CF92DF92EF92FF920F931F93CF9352
:1013B000DF9300D01F92CDB7DEB79B838A83DC0119
:1013C000EC91E23108F0E251F0E0E65FFE4FE4918B
:1013D00080917B00E3FB222720F930E045E0220FDB
:1013E000331F4A95E1F78F7D282B20937B00E77010
:1013F000E064E0937C0080917A00806480937A00BE
:1014000080917A0086FDFCCF009178008091790070
:10141000602F70E08B01182BEA81FB81258C368CC4
:1014200030A2278EF085F983FF2309F455C0AA81E5
:10143000BB811D968C91882309F44EC0B801012E02
:10144000000C880B990B0E94A72B2B013C01EA8111
:10145000FB81C184D284E384F484A70196010E94B5
:10146000F82A87FF0EC0B801660F771F072E000C01
:10147000880B990B0E94A72BA70196010E948B2A2B
:1014800028C0AA81BB811296AD90BC901397B5017C
:101490000B2C000C880B990B0E94A72BA70196011F
:1014A0000E948B2A9B01AC01C301B2010E94572C00
:1014B000181694F4B801660F771F6A197B09072E76
:1014C000000C880B990B0E94A72BA70196010E9484
:1014D0008C2A0E946F2B8B01EA81FB814684578402
:1014E00060887188B801110F880B990B0E94A72B97
:1014F000A30192010E948B2A6B017C0120E030E065
:10150000A9010E94572C18161CF4C701B60103C08C
:10151000C701B60190580E94762B8B01AA81BB812E
:1015200056968D909D90AD90BC905997A5019401D1
:10153000C701B6010E948B2A2DEC3CEC4CEC5EE31B
:101540000E945C2C9B01AC01C501B4010E948C2A55
:101550004B015C01EA81FB81668B778B808F918FD9
:10156000F981FF2311F120E030E0A9010E94572CFE
:10157000181624F0B7FAB094B7F8B094AA81BB81DA
:1015800019962D913D914D915C911C97C501B40127
:101590000E94F82A881F8827881FEA81FB81828F92
:1015A000882319F0C301B2017EC0B80180E090E049
:1015B0000E94A52BAA81BB8114962D913D914D913E
:1015C0005C9117970E945C2C20E030E040E85FE3DC
:1015D0000E948C2A9B01AC0160E070E080E89FE3F0
:1015E0000E94FD2A9B01AC0160E070E080E89FE36F
:1015F0000E948B2A9B01AC010E948C2A5B018C010A
:1016000020E030E040E85FE30E94572C181624F4F5
:10161000A12CB12C00E81FE39501A801C701B60178
:101620000E945C2C9B01AC01C301B2010E948C2A78
:101630006B017C01EA81FB8166877787808B918BC8
:1016400020E030E0A9010E94F82A87FF09C0AA81A2
:10165000BB811E961D921D921D921C9251971DC01A
:10166000EA81FB81828193810197BC01990F880BEC
:10167000990B0E94A72B4B015C019B01AC01C70198
:10168000B6010E94572C181644F4AA81BB811E96FD
:101690008D929D92AD92BC925197EA81FB816685B5
:1016A0007785808991890E946F2BAA81BB815E9684
:1016B0007C936E935D9781E06215730509F480E079
:1016C000EA81FB8181A30F900F900F90DF91CF9162
:1016D0001F910F91FF90EF90DF90CF90BF90AF9050
:1016E0009F908F907F906F905F904F903F902F9042
:1016F00008958F929F92BF92CF92DF92EF92FF92C6
:101700000F931F93CF93DF9300D0CDB7DEB74C017B
:10171000B62E6801790180E094E0F401938382831E
:1017200080E090E0A0E8B0E481879287A387B48747
:1017300081E08587168A178A108E118E128E60E0DE
:101740008B2D49837A830E94490860E08B2D0E948B
:101750001508F401B0827A8171834981408720E0C5
:1017600030E040E85FE3C701B6010E94572C18162D
:101770006CF020E030E0A901C701B6010E94F82A10
:1017800087FF0AC0C12CD12C760106C0C12CD12CF8
:1017900080E8E82E8FE3F82EF401C482D582E68239
:1017A000F7820F900F90DF91CF911F910F91FF90D3
:1017B000EF90DF90CF90BF909F908F900895DC01C5
:1017C000FB0188E4808389E4818384E482835396E7
:1017D0009C9153979F709F5B938353968D919C919F
:1017E000549724E0969587952A95E1F78F708F5B43
:1017F000848385E00895FC0182818F5BFB018083F7
:1018000081E00895EF92FF920F931F93CF93DF93A0
:10181000FB012081213851F52381223239F5DC0189
:1018200012962C9130E04481558142175307F1F410
:10183000EC0109891A89E12CF12C0115110591F0AF
:10184000F801448155816281738180E80E947C04A3
:101850008F3FFFEF9F0769F0E80EF91ED8010D9149
:101860001C91EBCF81E08D8BC70105C080E090E03B
:1018700002C08FEF9FEFDF91CF911F910F91FF90EB
:10188000EF900895CF93DF93CDB7DEB7A0970FB653
:10189000F894DEBF0FBECDBFFC01DB018C918F5FE2
:1018A0008C93BE016F5F7F4F80E2DB011D928A95B2
:1018B000E9F799E0998384E08A8382E08D8383E06D
:1018C0008E839A8791E29B8791E09C879D879F8773
:1018D00022E2288B57E05B8B45E04C8B8E8B20E41B
:1018E00030E0388F2F8B998F5A8F4B8F8D8F3F8F92
:1018F0002E8F98A382818B8393898489998B8A8B7D
:101900008381982F90689D8B8F5F8C8F40E250E091
:1019100080E00E947C04A0960FB6F894DEBF0FBE54
:10192000CDBFDF91CF9108950F931F93CF93DF9396
:101930001F92CDB7DEB78C0169830E94122A69819C
:10194000681741F0C8010F90DF91CF911F910F915F
:101950000C941A2A0F90DF91CF911F910F91089547
:101960000F931F93CF93DF93CDB7DEB72A970FB6B0
:10197000F894DEBF0FBECDBFFC01228130E0FB0139
:10198000448155812417350709F025C5DC01918173
:101990008081813A69F5913019F582818130A9F40D
:1019A00089838FEF8A838DE08B8386E08C838EE042
:1019B0008D8388E08E8384E08F8380E8888748E089
:1019C00050E0BE016F5F7F4F07C0833309F001C550
:1019D00044E050E06FE472E080E40E947C04F9C4CB
:1019E00081E0933009F4F8C4923009F0F4C4F4C4EF
:1019F000813209F0F0C49B3021F4828155968C939A
:101A0000E8C49A3021F4828156968C93E2C49930CE
:101A100009F0E1C48381833009F0DDC4828184341C
:101A200009F05CC064E070E0CE0101960E944904B8
:101A30008FEC97E00197F1F700C0000083E38093FB
:101A40004F0280910001873021F1E091000181E097
:101A50008E0F8093000195E1A09100019A9FD00123
:101A60001124A859BE4F8C91882351F08091000118
:101A7000873030F4809100018F5F80930001ECCFBC
:101A800095E1E99FD0011124A859BE4F81E08C93C4
:101A900001C0E0E0E0935002E11104C082E08093D5
:101AA000510218C081E0809351028A8125E1E29FB2
:101AB000F0011124E859FE4F81838FEF9FE7938354
:101AC00082831586148680E197E2918B808B148A3D
:101AD000138A128A8FEF809352027BC469E070E010
:101AE000CE0101960E9449048981803821F0803915
:101AF00009F443C46EC4EA818E2F90E0FC01319753
:101B0000E730F10508F065C4EB59FF4F0C946D2DDB
:101B10008B818130B9F0823009F05BC46C81862FF3
:101B200090E0982F88272D81820F911D9093870236
:101B30008093860280E090E00E94940C6D8181E0A9
:101B400090E04AC38C8190E0982F88272D81820FE6
:101B5000911D092E000CAA0BBB0B80938802909359
:101B60008902A0938A02B0938B0233C48C818330A4
:101B700011F160F48130B9F08230C1F588EE93E064
:101B80009093C4028093C30262E02CC0853019F1A7
:101B9000D0F0863059F580E491E09093C4028093B0
:101BA000C30266E01FC080ED97E09093C40280936B
:101BB000C30261E017C080E293E09093C402809377
:101BC000C30263E00FC084EF91E09093C40280935E
:101BD000C30264E007C080E991E09093C40280935F
:101BE000C30265E082E090E00E94940C8B8181301A
:101BF00061F480918D028D7F816080938D0261E020
:101C000088E00E94490860E00EC0823009F0E1C31C
:101C100062E088E00E94490880918D028E7F826098
:101C200080938D0261E083E090E0D6C28B818A30A0
:101C3000A9F46C8170E080E090E00E94A52B20E088
:101C400030E048EC52E40E94FD2A6093CD0270938C
:101C5000CE028093CF029093D002BBC38B3009F0A9
:101C60004CC08C81282F30E03093D2022093D102D7
:101C70004091C3025091C402443F91E0590751F191
:101C800068F44034F1E05F0779F14039514009F0E0
:101C9000A0C3220F331F220F331F21C0483E93E001
:101CA000590799F0403DE7E05E0751F0403253405C
:101CB00009F08FC353E0220F331F5A95E1F70FC08D
:101CC00024E1829FC001112413C03AE0839FC00128
:101CD00011240EC0E5E08E9FC001112409C030938D
:101CE000D2022093D10275C3F3E08F9FC00111246B
:101CF0009093D2028093D1026CC38C3009F053C010
:101D00002C81822F90E09093D4028093D302409153
:101D1000C3025091C402443F31E0530751F168F4CB
:101D20004034F1E05F0779F14039514009F051C387
:101D3000880F991F880F991F21C0483E33E0530731
:101D400099F0403DE7E05E0751F04032534009F022
:101D500040C333E0880F991F3A95E1F70FC084E143
:101D6000289F900111241AC09AE0299F9001112404
:101D700015C0E5E02E9F9001112410C09093D4026D
:101D80008093D30226C330E0A0E4B1E00E947C2A15
:101D900024E630E040E050E00E94282A3093D4024C
:101DA0002093D30216C38D3009F013C38C81FFE555
:101DB0008F9FC00111249093D6028093D50209C34E
:101DC0008B81813039F0823009F003C380918D021C
:101DD0008B7F03C080918D02846080938D02F9C255
:101DE0008B81813059F4F8941092300410923104B0
:101DF000109232041092330478944CC0882309F472
:101E000049C0823021F480918C028E7F41C08330A2
:101E100021F480918C0281603BC0843069F48C8114
:101E2000813021F480918C02826032C0811132C0F5
:101E300080918C028D7F2CC0853069F48C8181303B
:101E400021F480918C02846023C0811123C0809191
:101E50008C028B7F1DC0863069F48C81813021F427
:101E600080918C02886014C0811114C080918C0212
:101E7000877F0EC0873071F48C81813021F480918E
:101E80008C02806105C0811105C080918C028F7E1B
:101E900080938C028D81813009F09BC28E818230CB
:101EA00091F040F4813009F094C280918C028F7BD4
:101EB00080620DC0833071F0843009F08AC2809155
:101EC0008C028F7B0AC080918C028F7D806480930E
:101ED0008C027FC280918C028F7D80938C02109245
:101EE0005B0210925C0210925D0210925E0271C25F
:101EF0008B818130A9F480918C0280FF6AC280912D
:101F0000DC036091DD0380939E0260939F0284E076
:101F100090E00E94940C6091DC0385E090E05CC14D
:101F20008230A9F480918C0280FF53C28091DC033F
:101F30006091DD038093A0026093A10286E090E0AF
:101F40000E94940C6091DC0387E090E045C18330EF
:101F500089F48091BA036091BB038093A2026093DD
:101F6000A30288E090E00E94940C6091BA0389E09B
:101F700090E032C1843089F48091BA036091BB0350
:101F80008093A4026093A5028AE090E00E94940CE2
:101F90006091BA038BE090E01FC1853089F4809195
:101FA0009803609199038093A6026093A7028CE046
:101FB00090E00E94940C609198038DE090E00CC139
:101FC000863089F480919803609199038093A802E8
:101FD0006093A9028EE090E00E94940C60919803B7
:101FE0008FE090E0F9C0873089F4809176036091AA
:101FF00077038093AA026093AB0280E190E00E9495
:10200000940C6091760381E190E0E6C0883089F419
:1020100080917603609177038093AC026093AD0268
:1020200082E190E00E94940C6091760383E190E05D
:10203000D3C0893089F48091540360915503809313
:10204000AE026093AF0284E190E00E94940C609134
:10205000540385E190E0C0C08A3089F48091540334
:10206000609155038093B0026093B10286E190E0E5
:102070000E94940C6091540387E190E0ADC08B30D6
:1020800021F48C818093BA02A4C18C3021F48C811C
:102090008093B9029EC18D3021F48C818093B5026A
:1020A00098C18E3021F48C818093B60292C18F301A
:1020B00021F48C818093B4028CC1803199F4809199
:1020C0005403909155039093C0028093BF02609196
:1020D000330387E190E00E94940C6091320388E121
:1020E00090E07AC0813189F4809154039091550336
:1020F0009093C2028093C1026091330389E190E022
:102100000E94940C6091320365C0823199F48091F1
:102110003203909133039093BC028093BB02609191
:1021200055038BE190E00E94940C609154038CE184
:1021300090E052C0833199F480913203909133033F
:102140009093BE028093BD02609155038DE190E0B3
:102150000E94940C609154038EE190E03DC0843164
:1021600009F037C11092BC021092BB0260E08BE113
:1021700090E00E94940C60E08CE190E00E94940C4E
:102180000FEF13E01093BE020093BD0263E08DE1F8
:1021900090E00E94940C6091BD028EE190E00E945C
:1021A000940C1092C0021092BF0260E087E190E0B0
:1021B0000E94940C60E088E190E00E94940C1093DF
:1021C000C2020093C10263E089E190E00E94940C96
:1021D0006091C1028AE190E00E94940CFAC0EB8108
:1021E0008E2F90E0FC013197EA30F10508F0F1C044
:1021F000E459FF4F6E810C946D2D70E080E090E00B
:102200000E94A52B20E030E048EC52E40E94FD2A19
:102210006093DF027093E0028093E1029093E20208
:10222000D8C070E080E090E00E94A52B20E030E074
:1022300048EC52E40E94FD2A6093D7027093D802C2
:102240008093D9029093DA02C4C070E080E090E0FD
:102250000E94A52B20E030E048EC52E40E94FD2AC9
:102260006093DB027093DC028093DD029093DE02C8
:10227000B0C070E080E090E00E94A52B20E030E04C
:1022800048EC52E40E94FD2A6093E3027093E4025A
:102290008093E5029093E6029CC070E080E090E0BD
:1022A0000E94A52B20E030E048EC52E40E94FD2A79
:1022B0006093EB027093EC028093ED029093EE0238
:1022C00088C070E080E090E00E94A52B20E030E024
:1022D00048EC52E40E94FD2A6093E7027093E80202
:1022E0008093E9029093EA0274C070E080E090E08D
:1022F0000E94A52B20E030E048EC52E40E94FD2A29
:102300006093EF027093F0028093F1029093F202D7
:1023100060C070E080E090E00E94A52B20E030E0FB
:1023200048EC52E40E94FD2A6093F3027093F40299
:102330008093F5029093F6024CC070E080E090E04C
:102340000E94A52B20E030E048EC52E40E94FD2AD8
:102350006093F7027093F8028093F9029093FA0267
:1023600038C027E431E0629FC001639F900D1124C3
:102370009093FC028093FB022CC08A81823071F022
:1023800028F4882341F0813049F023C0833031F0B4
:10239000843039F01EC0109281021BC080938102EC
:1023A00018C080E10E94E907892B41F461E080E1D7
:1023B0000E94150881E080937E020BC080E10E949C
:1023C000E907019731F460E080E10E94150810925E
:1023D0007E0281E001C080E02A960FB6F894DEBF4D
:1023E0000FBECDBFDF91CF911F910F910895AF9296
:1023F000BF92CF92DF92EF92FF920F931F93CF93F2
:10240000DF931F92CDB7DEB77C0169836A01590162
:1024100041E050E0BE016F5F7F4FFC0183810E946D
:10242000B4048C0197FD0BC0F7018381A501B601AF
:1024300080640E94B40497FD02C0800F911F0F902A
:10244000DF91CF911F910F91FF90EF90DF90CF9090
:10245000BF90AF9008958091470281116FC082E0D4
:102460008093340281E0809335022FE332E0309391
:1024700037022093360210923902109238022FE36D
:1024800031E03093310220933002109242021092D8
:1024900041021092440210924302809345028093BD
:1024A000460281EC80933F0280EC809340020E94C0
:1024B0007905FC0121818091340290E0820F911D09
:1024C000089724F081E08093470238C0A281B3814D
:1024D000109729F480E392E0938382830EC01896CC
:1024E0008D919C911997009711F0DC01F8CF80E352
:1024F00092E019969C938E93189780818093320274
:10250000818180933302908180913502890F80838D
:1025100080E0909134028917A8F6A0913602B0911C
:102520003702A80FB11D9C91A181B0E0AF5FBE4FF3
:102530009C9391819F5F91838F5FEBCF80E392E0CB
:1025400008950C94122ADC01ED91FD918081ED91AA
:10255000FD919081ED91FD916C9163708E2309F056
:1025600064609F2309F06860E0ECF2E1E60FF11D82
:10257000659565956D936D917D918D919D91099472
:1025800023C01AC012C016C010C01EC009C014C09B
:1025900013C006C019C009C00DC007C00DC014C0CB
:1025A00062507040804090400BC06150704080404D
:1025B000904006C06E5F01C06F5F7F4F8F4F9F4F8F
:1025C0009E938E937E936E9308958091590290917D
:1025D0005A020C94A31280915702909158020C94C5
:1025E000A31280915502909156020C94A3128091EF
:1025F0005302909154020C94A31296E0899FD0014B
:102600001124AB5CBB4F90967C936E935F9791E0E7
:1026100091969C9391979091A104E091A204F091DE
:10262000A304992339F0309751F0811108C08091AB
:10263000510404C0309719F05C968C910994089568
:10264000CF92DF92EF92FF920F931F93CF93DF937E
:102650006C017A018B01C0E0D0E0CE15DF0589F076
:10266000D8016D918D01D601ED91FC910190F08121
:10267000E02DC6010995892B11F47E0102C0219637
:10268000ECCFC701DF91CF911F910F91FF90EF9099
:10269000DF90CF900895CF93DF931F92CDB7DEB731
:1026A0006983DC01ED91FC910280F381E02D41E032
:1026B00050E0BE016F5F7F4F09950F90DF91CF9182
:1026C000089583E08093E9008091F200882319F057
:1026D0008AE38093E8000895FC018485958597FD41
:1026E0000BC09FB7F89482E08093E9008091F200DC
:1026F0009FBF90E0019608959FB7F89482E0809381
:10270000E9008091F2009FBF90E00895089580E075
:1027100090E00895CF93DF93EC0180913A018823F4
:1027200031F083E00E94B4041816190634F081E0F9
:1027300090E09B838A8380E090E0DF91CF910895C1
:1027400083E00E94A30490E00895CF93DF931F924B
:10275000CDB7DEB7FC018485958597FD05C02FEFC9
:102760003FEF358724870FC041E050E0BE016F5F27
:102770007F4F82E00E944A05019719F4898190E019
:1027800002C08FEF9FEF0F90DF91CF9108950F93CD
:102790001F93CF93DF931F92CDB7DEB78C01FC015F
:1027A0008485958597FF12C041E050E0BE016F5FC0
:1027B0007F4F82E00E944A05019719F4298130E099
:1027C00002C02FEF3FEFF80135872487F801848599
:1027D00095850F90DF91CF911F910F9108950F93E1
:1027E0001F93CF93DF93C82FD62F86E0C89FF001A9
:1027F0001124EB5CFB4F11A2878D90A181309105D4
:10280000F1F01CF4892B49F043C082309105A9F105
:102810000397F1F560E070E034C06623C9F161E030
:1028200070E08C2F0E94FD120E94AE0860938D0410
:1028300070938E0480938F049093900429C00E941B
:10284000AE0800918D0410918E0420918F04309178
:102850009004AB01BC01401B510B620B730B8091C8
:102860009F049091A004A0E0B0E084179507A6070C
:10287000B70718F462E070E004C0D11109C063E04A
:1028800070E08C2FDF91CF911F910F910C94FD126E
:10289000DF91CF911F910F9108958F929F92AF92E8
:1028A000BF92CF92DF92EF92FF920F931F9380918E
:1028B0008C0281FF33C08DE993E00E94C709C0906C
:1028C000A202D090A3020D2C000CEE08FF0820916C
:1028D000BA033091BB03C901330FAA0BBB0B9C0198
:1028E000AD012C193D094E095F09AFEFB3E00E941D
:1028F000472A2091A4023091A5028901330F220BAF
:10290000330BA90198012C193D094E095F090E945A
:10291000282A309368022093670204C0109268024C
:102920001092670280918C0282FF33C08BE793E0A4
:102930000E94C709C090A602D090A7020D2C000CDF
:10294000EE08FF082091980330919903C901330FD5
:10295000AA0BBB0B9C01AD012C193D094E095F0967
:10296000AFEFB3E00E94472A2091A8023091A9025C
:102970008901330F220B330BA90198012C193D0952
:102980004E095F090E94282A309364022093630253
:1029900004C0109264021092630280918C0283FF43
:1029A00033C089E593E00E94C709C090AA02D09085
:1029B000AB020D2C000CEE08FF082091760330913D
:1029C0007703C901330FAA0BBB0B9C01AD012C1976
:1029D0003D094E095F09AFEFB3E00E94472A2091FD
:1029E000AC023091AD028901330F220B330BA901E8
:1029F00098012C193D094E095F090E94282A30933D
:102A000066022093650204C010926602109265026D
:102A100080918C0284FF36C08F7D80938C0287E387
:102A200093E00E94C709C090AE02D090AF020D2C77
:102A3000000CEE08FF082091540330915503C901A2
:102A4000330FAA0BBB0B9C01AD012C193D094E099C
:102A50005F09AFEFB3E00E94472A2091B0023091A6
:102A6000B1028901330F220B330BA90198012C19F4
:102A70003D094E095F090E94282A30936A0220937B
:102A8000690204C010926A021092690280918C025D
:102A900085FF2CC285E193E00E94C70987E393E09C
:102AA0000E94C7098090BF029090C002A12CB12C57
:102AB000C090BB02D090BC02E12CF12C20913203DB
:102AC00030913303C901330FAA0BBB0B9C01AD013D
:102AD0002C193D094E095F09AFEFB0E00E94472A6B
:102AE0002091BD023091BE02890120E030E0A901B1
:102AF00098012C193D094E095F090E94282A690195
:102B00007A012091540330915503C901330FAA0B68
:102B1000BB0B9C01AD01281939094A095B09AFEFCC
:102B2000B0E00E94472A2091C1023091C20289017F
:102B300020E030E0A9019801281939094A095B0908
:102B40000E94282AC9012F3F310519F014F08FEF98
:102B500090E097FF02C080E090E09093B3028093F2
:102B6000B202A6014F3F510519F014F04FEF50E0AB
:102B700057FF02C040E050E05093B8024093B702C4
:102B80002091BA0230E042175307FCF42091B402BE
:102B900030E082179307CCF48FE00E94E907409160
:102BA0005B0250915C0260915D0270915E02892B24
:102BB00011F4516001C0416040935B0250935C028C
:102BC00060935D0270935E0212C080915B029091EF
:102BD0005C02A0915D02B0915E028E7F9E7F809329
:102BE0005B0290935C02A0935D02B0935E028091C1
:102BF000B90290E02091B7023091B8028217930792
:102C00001CF58091B40290E02091B2023091B302A1
:102C100028173907CCF48FE00E94E90740915B0246
:102C200050915C0260915D0270915E02892B11F4FB
:102C3000526001C0426040935B0250935C0260931B
:102C40005D0270935E0212C080915B0290915C0203
:102C5000A0915D02B0915E028D7F9D7F80935B02AB
:102C600090935C02A0935D02B0935E024091B20229
:102C70005091B3022091B50230E091E04217530722
:102C80000CF090E02091B40230E081E02417350789
:102C90000CF080E0892319F18091BA0290E0209134
:102CA000B7023091B80228173907CCF48FE00E94A0
:102CB000E90740915B0250915C0260915D02709166
:102CC0005E02892B11F4546001C0446040935B02A2
:102CD00050935C0260935D0270935E0212C080911B
:102CE0005B0290915C02A0915D02B0915E028B7FCD
:102CF0009B7F80935B0290935C02A0935D02B093F4
:102D00005E024091B2025091B3022091B50230E0D0
:102D100091E0421753070CF090E02091B40230E0AC
:102D200081E0241735070CF080E0892319F18091A8
:102D3000B90290E02091B7023091B8028217930750
:102D4000CCF48FE00E94E90740915B0250915C0255
:102D500060915D0270915E02892B11F4586001C090
:102D6000486040935B0250935C0260935D027093F5
:102D70005E0212C080915B0290915C02A0915D02A4
:102D8000B0915E02877F977F80935B0290935C0295
:102D9000A0935D02B0935E024091B2025091B302E3
:102DA0002091B60230E071E0421753070CF070E05A
:102DB0008091B50290E061E0841795070CF060E027
:102DC000F72EF622E091B702F091B8028091BA0294
:102DD00090E071E0E817F9070CF070E080915B0279
:102DE00090915C02A0915D02B0915E02FF2021F003
:102DF000772311F0806101C08F7E80935B029093F6
:102E00005C02A0935D02B0935E028091B90290E0F3
:102E100061E08E179F070CF060E080915B0290915B
:102E20005C02A0915D02B0915E02FF2021F066235A
:102E300011F0806201C08F7D80935B0290935C02F1
:102E4000A0935D02B0935E02E1E080915B029091FD
:102E50005C02A0915D02B0915E022417350714F068
:102E6000E0E00CC0772351F0806480935B02909384
:102E70005C02A0935D02B0935E020BC08F7B8093D7
:102E80005B0290935C02A0935D02B0935E02EE231E
:102E9000D9F06623C9F08FE00E94E90740915B02F8
:102EA00050915C0260915D0270915E02892B11F479
:102EB000506101C0406840935B0250935C02609394
:102EC0005D0270935E0212C080915B0290915C0281
:102ED000A0915D02B0915E028F779F7E80935B022E
:102EE00090935C02A0935D02B0935E0280918C028D
:102EF00086FF68C085E193E00E94C7098DE790E0F6
:102F00009093B3028093B202C090BB02D090BC02F7
:102F1000E12CF12C2091320330913303C901330F9E
:102F2000AA0BBB0B9C01AD012C193D094E095F0991
:102F3000AFEFB0E00E94472A2091BD023091BE025F
:102F4000890120E030E0A90198012C193D094E09C2
:102F50005F090E94282AB9013093B8022093B70272
:102F60002091BA0230E080915B0290915C02A091C6
:102F70005D02B0915E026217730714F4816001C0B4
:102F80008E7F80935B0290935C02A0935D02B0936E
:102F90005E022091B90230E080915B0290915C0268
:102FA000A0915D02B0915E022617370714F482608B
:102FB00001C08D7F80935B0290935C02A0935D02C1
:102FC000B0935E021F910F91FF90EF90DF90CF9032
:102FD000BF90AF909F908F900895CF92DF92EF9225
:102FE000FF920E9489086B017C010E948908DC0124
:102FF000CB018C199D09AE09BF09883E9340A105FC
:10300000B10598F3FF90EF90DF90CF900895CF93A4
:10301000DF9320918D0221FF03C0181619063CF0A2
:1030200097FF03C0919581959109DC0102C0A0E052
:10303000B0E0C091C302D091C4029E010E94732DE2
:1030400020E137E240E050E00E94282A8091D1023E
:103050009091D2022817390748F08091D3029091BD
:10306000D4022817390720F09C0102C020E030E08C
:103070003093890020938800D0938700C093860006
:10308000DF91CF910895CF93DF9397FF02C080E047
:1030900090E0C091C302D091C4029E01DC010E9465
:1030A000732D20E137E240E050E00E94282A809111
:1030B000D1029091D2022817390748F08091D302AB
:1030C0009091D4022817390720F09C0102C020E01B
:1030D00030E030938B0020938A00D0938700C09318
:1030E0008600DF91CF9108952F923F924F925F9289
:1030F0006F927F928F929F92AF92BF92CF92DF9208
:10310000EF92FF920F931F93CF93DF93CDB7DEB76C
:103110002E970FB6F894DEBF0FBECDBF30902704B8
:10312000311002C0312C46C10E94AE086D837E83EF
:103130008F83988780910F0490911004A0911104BF
:10314000B09112044D815E816F817885481B590BC7
:103150006A0B7B0B80911B0490911C04A0911D04B1
:10316000B0911E04481759076A077B07D8F22091CF
:10317000090430910A04D9018D919D910D90BC9163
:10318000A02D89839A83AB83BC83E0910D04F091D9
:103190000E049C01AD0160817181828193810E9446
:1031A0008B2A4B015C012091170430911804409147
:1031B000190450911A0469817A818B819C810E9443
:1031C0008B2A6B017C012091FD033091FE0340911D
:1031D000FF0350910004C501B4010E945C2C2091B2
:1031E00013043091140440911504509116040E9468
:1031F0008C2A2B013C016093130470931404809378
:103200001504909316042090280421101AC02091D0
:10321000F9033091FA034091FB035091FC03C7017D
:10322000B6010E945C2C9B01AC01C301B2010E945B
:103230008B2A609313047093140480931504909365
:10324000160440901304509014046090150470907C
:10325000160410912304B0912404BE87E091250444
:10326000ED8700912604212F3B2F4E2F502FC301B5
:10327000B2010E94572C18162CF4812F9E85AD8523
:10328000B02F18C080911F0490912004A0912104B8
:10329000B091220489879A87AB87BC879C01AD01D6
:1032A000C301B2010E94F82A87FF0CC089859A8564
:1032B000AB85BC858093130490931404A0931504EC
:1032C000B0931604222079F02091F9033091FA038B
:1032D0004091FB035091FC03C501B4010E945C2C9A
:1032E0004B015C0103C0812C912C540120910104FD
:1032F000309102044091030450910404C701B601C7
:103300000E945C2C9B01AC01609113047091140429
:1033100080911504909116040E948B2A9B01AC01A8
:10332000C501B4010E948C2A6B017C01212F3E85CE
:103330004D85502F0E94572C1816C4F010911F0471
:10334000909120049E87A0912104AD8700912204D2
:10335000212F392F4A2F502FB601C7010E94F82A7A
:1033600087FD04C01C2DDE86ED860F2DE0910B0439
:10337000F0910C04812F9E85AD85B02F80839183C1
:10338000A283B38389819A81AB81BC818093170426
:1033900090931804A0931904B0931A048D819E8110
:1033A000AF81B88580930F0490931004A09311040B
:1033B000B0931204832D2E960FB6F894DEBF0FBE85
:1033C000CDBFDF91CF911F910F91FF90EF90DF90D4
:1033D000CF90BF90AF909F908F907F906F905F90B5
:1033E0004F903F902F900895CF93DF93CDB7DEB7E6
:1033F00064970FB6F894DEBF0FBECDBF789484B546
:10340000826084BD84B5816084BD85B5826085BDE0
:1034100085B5816085BD80916E00816080936E006E
:103420001092810080918100826080938100809160
:103430008100816080938100809180008160809311
:103440008000809191008260809391008091910032
:1034500081608093910080919000816080939000C2
:103460008091C10084608093C1008091C10082601E
:103470008093C1008091C10081608093C1008091E0
:10348000C30081608093C3008091C00082608093FC
:10349000C0008091C20081608093C20080917A0058
:1034A000846080937A0080917A00826080937A00B1
:1034B00080917A00816080937A0080917A008068A0
:1034C00080937A0010926701109266011092650154
:1034D0008091D70081608093D70080EA8093D800E4
:1034E00089B5806189BD89B5826089BD09B400FE56
:1034F000FDCF0E94ED178091D8008F7C8061809372
:10350000D8008091E000807F8093E0008091E1000E
:103510008E7E8093E1008DE08093E200559A209AA0
:10352000EEEFFFE7859194918B3F9C4D19F481E07C
:103530008093640181E1EBE5F2E0DF011D928A9561
:10354000E9F710929F0210929E028FEF93E0909302
:10355000A1028093A0021092A3021092A202909363
:10356000A5028093A4021092A7021092A602909343
:10357000A9028093A8021092AB021092AA02909323
:10358000AD028093AC021092AF021092AE02909303
:10359000B1028093B00280E090E00E94A112182F47
:1035A00081E090E00E94A112212F30E0322F2227EB
:1035B000280F311D309387022093860282E090E02D
:1035C0000E94A112833099F038F4813069F0823082
:1035D000D1F488EE93E013C0853079F058F086304E
:1035E00091F480E491E00BC080ED97E008C080E2A8
:1035F00093E005C084EF91E002C080E991E09093F0
:10360000C4028093C30283E090E00E94A112882349
:1036100069F08130A9F462E088E00E944908809155
:103620008D028E7F826080938D020AC080918D0210
:103630008D7F816080938D0261E088E00E9449085F
:1036400084E090E00E94A112182F85E090E00E9493
:10365000A112212F30E0322F2227280F311D309365
:103660009F0220939E0286E090E00E94A112182FF4
:1036700087E090E00E94A112212F30E0322F222714
:10368000F901E80FF11DCF01EF2B11F48FEF93E05B
:103690009093A1028093A00288E090E00E94A11282
:1036A000182F89E090E00E94A112212F30E0322FE4
:1036B0002227280F311D3093A3022093A2028AE013
:1036C00090E00E94A112182F8BE090E00E94A112BE
:1036D000212F30E0322F22276901C80ED11CC601EC
:1036E000009711F48FEF93E09093A5028093A402CA
:1036F0008CE090E00E94A112182F8DE090E00E94D3
:10370000A112212F30E0322F2227280F311D3093B4
:10371000A7022093A6028EE090E00E94A112182F2B
:103720008FE090E00E94A112212F30E0322F22275B
:103730007901E80EF11CC701009711F48FEF93E0B7
:103740009093A9028093A80280E190E00E94A112C8
:10375000182F81E190E00E94A112212F30E0322F3A
:103760002227280F311D3093AB022093AA0282E159
:1037700090E00E94A112182F83E190E00E94A11214
:10378000212F30E0322F2227A901480F511DCA01F5
:10379000009711F48FEF93E09093AD028093AC0209
:1037A00084E190E00E94A112182F85E190E00E9430
:1037B000A112212F30E0322F2227280F311D309304
:1037C000AF022093AE0286E190E00E94A112182F72
:1037D00087E190E00E94A112212F30E0322F2227B2
:1037E000D901A80FB11DCD01AB2B11F48FEF93E0E0
:1037F0009093B1028093B00287E190E00E94A11201
:10380000182F88E190E00E94A112212F30E0322F82
:103810002227280F311D3093C0022093BF0289E177
:1038200090E00E94A112182F8AE190E00E94A1125C
:10383000212F30E0322F2227F901E80FF11DCF01AF
:10384000EF2B11F48FEF93E09093C2028093C102AB
:103850008BE190E00E94A112182F8CE190E00E9471
:10386000A112212F30E0322F2227280F311D309353
:10387000BC022093BB028DE190E00E94A112182FA0
:103880008EE190E00E94A112212F30E0322F2227FA
:103890006901C80ED11CC601009711F48FEF93E0A7
:1038A0009093BE028093BD028CE192E0A0E0B0E074
:1038B0008093880290938902A0938A02B0938B022E
:1038C00080E090E0A0E4BFE38093CD029093CE022D
:1038D000A093CF02B093D00288E893E19093D602F0
:1038E0008093D50280E090E0A0E0BFE38093DF0208
:1038F0009093E002A093E102B093E2028093D7029A
:103900009093D802A093D902B093DA028093DB029D
:103910009093DC02A093DD02B093DE028093E30279
:103920009093E402A093E502B093E6028093E7024D
:103930009093E802A093E902B093EA028093EB022D
:103940009093EC02A093ED02B093EE0280E090E041
:10395000A0E8BFE38093EF029093F002A093F102FE
:10396000B093F2028093F3029093F402A093F502D5
:10397000B093F6028093F7029093F802A093F902B5
:10398000B093FA021092FC021092FB0280918C021A
:10399000816080938C0262E08FE00E94490861E0C0
:1039A00080E10E94490860E080E10E9415081092C1
:1039B0007E0210927F021092800280E48093B40213
:1039C00080E88093B5028EEB8093B6028093B902B3
:1039D0008FE38093BA0280EA8093800081E1809334
:1039E0008100259A269A80E090E00E94071880E0E6
:1039F00090E00E94431884E690E0A0E0B0E080935D
:103A0000050390930603A0930703B09308030E9455
:103A1000AE08009105031091060320910703309131
:103A20000803DC01CB01801B910BA20BB30B80932D
:103A3000090390930A03A0930B03B0930C03812C0A
:103A400010E4912E1CE1A12E16ECB12E80921F04E1
:103A500090922004A0922104B0922204C12C00E490
:103A6000D02E0CE1E02E06E4F02EC0922304D0927A
:103A70002404E0922504F092260430902704332099
:103A800009F457C000910B0410910C04D8014D901B
:103A90005D906D907C90A7019601C301B2010E94D8
:103AA000572C181634F4F801C082D182E282F382D6
:103AB00010C020E030E44CE156ECC301B2010E949A
:103AC000F82A87FF06C0D8018D929D92AD92BC92D4
:103AD00013978090130490901404A0901504B09054
:103AE00016044090230450902404609025047090A4
:103AF0002604A3019201C501B4010E94572C181697
:103B000084F040901F045090200460902104709035
:103B10002204A3019201C501B4010E94F82A87FF83
:103B200008C04092130450921404609215047092DD
:103B3000160460911B0470911C0480911D049091E7
:103B40001E040E94A52B9B01AC0160E070E080E2A6
:103B500091E40E94FD2A2B013C019B01AC01609184
:103B6000FD037091FE038091FF03909100040E9479
:103B70005C2C6093FD037093FE038093FF0390938E
:103B80000004A301920160910104709102048091EC
:103B90000304909104040E94FD2A60930104709331
:103BA000020480930304909304048AE090E0A0E070
:103BB000B0E080931B0490931C04A0931D04B09369
:103BC0001E04311048C0E0910B04F0910C04C08039
:103BD000D180E280F380C0921304D0921404E0926A
:103BE0001504F0921604E0910904F0910A04808112
:103BF0009181A281B3818093170490931804A093BC
:103C00001904B0931A044090230450902404609047
:103C1000250470902604A3019201C701B6010E94F9
:103C2000572C181684F040901F0450902004609088
:103C3000210470902204A3019201C701B6010E94E1
:103C4000F82A87FF08C0409213045092140460922F
:103C500015047092160481E08093270480918102FC
:103C6000823041F1833009F44FC0813009F08BC2BA
:103C7000809186029091870290936C0280936D02EE
:103C800080918D0280936E028091C3029091C40254
:103C900090936F02809370020E942B1229E030E013
:103CA0004CE652E060E80E94F7118BE891E0019742
:103CB000F1F769C20E944D148091B202809375029F
:103CC0008091B702809376028091B9028093770247
:103CD0008091BA02809378028091B4028093790235
:103CE0008091B50280937A028091B60280937B0224
:103CF00083E290E00197F1F70E942B1229E030E077
:103D000045E752E060E8E3C010928202109283021D
:103D1000109284021092850280913404823030F433
:103D2000F89489E294E00E94A31201C0F8942091D3
:103D3000300430913104409132045091330478942E
:103D4000AFEFBFEF0E94472A6B017C01A091860272
:103D5000B0918702209188023091890240918A02B5
:103D600050918B020E94522A28E631E040E050E058
:103D70000E94282AC701B6010E94282A2115B0E80E
:103D80003B074105510524F02FEF3FE740E050E0AD
:103D90002115E0E83E07EFEF4E075E0724F420E030
:103DA00030E84FEF5FEF209382023093830240931D
:103DB0008402509385023093600220935F028FEB60
:103DC00093E00E94C70980918C0280FF50C0C09090
:103DD0009E02D0909F020D2C000CEE08FF0820914F
:103DE000DC033091DD03C901330FAA0BBB0B9C012F
:103DF000AD012C193D094E095F09AFEFBFEF0E94DD
:103E0000472A2091A0023091A1028901330F220B91
:103E1000330BA90198012C193D094E095F090E9435
:103E2000282ADA01C9019058A109B1098115F0E8E1
:103E30009F07A105B10524F08FEF9FE7A0E0B0E058
:103E4000811520E892072FEFA207B20724F480E043
:103E500090E8AFEFBFEF80939A0290939B02A093FC
:103E60009C02B0939D0290936202809361020E9433
:103E70004D148FEF80936B020E94AE080091910465
:103E8000109192042091930430919404AB01BC01F1
:103E9000401B510B620B730B80919D0490919E040B
:103EA000A0E0B0E084179507A607B70798F00E9436
:103EB0002B1221E130E04BE552E063E00E94F71164
:103EC0000E942B1223E030E04EE752E066E80E94A9
:103ED000F71159C110E080919B04181760F4E0912C
:103EE0009704F0919804E10FF11D62E080810E9437
:103EF00049081F5FF0CF912C80919C04981608F020
:103F000064C0E92CF12CE0919904F0919A04EE0D33
:103F1000FF1D61E080810E944908E0919904F091C1
:103F20009A04EE0DFF1D60E080810E94150881E07B
:103F300090E0A0E0B0E0092C04C0880F991FAA1FF0
:103F4000BB1F0A94D2F75C016C01C094D094712C11
:103F500080919B04781610F5072D10E0809197044E
:103F600090919804FC01E00FF11F80810E94E90705
:103F70000C5F1F4F000F111FF801EB5CFB4F892BEB
:103F800029F4808191818A299B2904C080819181B3
:103F90008C219D21918380837394DACFE0919904E1
:103FA000F0919A04EE0DFF1D61E080810E941508DA
:103FB0008091990490919A04FC01EE0DFF1D60E040
:103FC00080810E944908939497CF01E514E0F8019D
:103FD0008FEF9FEF23813481232B21F41082928372
:103FE00081831582369634E0ED38F30799F7C12CBA
:103FF000A6E0DA2E80919B04C81608F056C0B12CBA
:10400000EC2CF12CC701880F991FFC01E35CFB4FDE
:104010007F0120919C04B21608F045C0D7016D9134
:104020007C910B2C02C0769567950A94E2F761703B
:104030007727C29E900111242B0D311DE09195042C
:10404000F0919604E20FF31FA081E5E3F4E080E035
:10405000458D568D4217530711F461701AC08F5F5A
:1040600036968A30A9F7672BE1F0E1E5F4E080E0CD
:1040700090E04081411110C0D89EF001D99EF00D12
:104080001124EB5CFB4FA48F368F258F10A2178E67
:1040900061E00E94EF1305C0019636968A309105C3
:1040A00041F7B394B6CFC394A5CF80E090E0F12C54
:1040B000FC01EB5CFB4F21A1222311F0FF24F394C0
:1040C00006968C339105A1F70E94AE086093910487
:1040D000709392048093930490939404FF2009F4C6
:1040E000E6CE80915B0290915C02A0915D02B0915E
:1040F0005E02F80125812223B1F12381348123302E
:10410000310534F4213031053CF4232BB9F02BC0B8
:104110002330310599F027C041E050E060E070E0C5
:10412000F801008004C0440F551F661F771F0A94D2
:10413000D2F7842B952BA62BB72B15C041E050E06E
:1041400060E070E0F801008004C0440F551F661F56
:10415000771F0A94D2F74095509560957095842307
:104160009523A623B7230A5F1F4FF4E00D381F07DE
:1041700009F0BFCF80935B0290935C02A0935D0235
:10418000B0935E0294CE0E942B128C0145E1D42E96
:1041900055E1A52ECC24C39468E6E62E61E0F62E08
:1041A00078EAB72EE2E09E2ED80113968C918F5FAD
:1041B0009FB7F89487708093E9008091F2009FBFC9
:1041C000882309F4E2C0D80113968C914EE050E0A8
:1041D000BE016F5F7F4F8F5F0E944A05EA81898130
:1041E0008530F1F48B819C81DE9EF0011124E85929
:1041F000FE4F958384830DC0813059F48B81DE9E00
:10420000F0011124E859FE4F818388859985918BAF
:10421000808B8FE99FE00197F1F700C00000C4CFC9
:10422000863090F58330D1F48D819E81DE9EF00141
:104230001124E859FE4F918780878F819885978355
:10424000868389859A85938782878B819C819587D0
:1042500084878D859E8597878687DBCF843060F243
:104260008C819D81DE9EF0011124E859FE4F9583DB
:1042700084838E819F81958784878B81848B8885B9
:104280009985938B828BC5CF8B3031F5909210023C
:1042900080911202846080931202809112028061E8
:1042A0008093120210921102E23069F038F4E1308A
:1042B00009F0AFCF809112028E7F08C0E33049F041
:1042C000E43071F0A6CF80911202846080931202D4
:1042D000A0CF109211029DCF8534D9F4EF3F41F465
:1042E000C0920001D701EB2D1D92EA95E9F791CF1D
:1042F000E83008F08ECFDE9ED0011124A859BE4FC1
:104300001C9280910001E81708F083CFE093000130
:1043100080CF8A3009F07DCFEF3F09F4EFE78B8142
:10432000813039F4E83008F074CFDE9EF0011124BA
:1043300018C08230E1F481E090E0D89ED001D99E8F
:10434000B00D1124A859BE4F2C912D7F2C930196AE
:104350008830910591F7E83008F05BCFAE9EF00110
:104360001124E859FE4F80818260808352CF8330D0
:1043700009F04FCFE83008F04CCFDE9EF001112459
:10438000E859FE4F80818D7FF0CF1092C6021092C7
:10439000C5021092CB021092CC020E94AE0860932C
:1043A0008F027093900280939102909392020091F9
:1043B000090310910A0320910B0330910C036B0148
:1043C0007C01C01AD10AE20AF30A97018601C09261
:1043D0000D03D0920E03E0920F03F0921003C090F1
:1043E0000503D0900603E0900703F09008030C1536
:1043F0001D052E053F05C0F02091820230918302F9
:1044000030930403209303036093090370930A031A
:1044100080930B0390930C038091FD029091FE0218
:10442000909300038093FF02AA24A394B12C25E16A
:10443000922E30E1232E37E2332E9A9C80019B9CF2
:10444000100D112408591E4FF801808181FF1FC5EE
:104450008181833009F43EC230F4813069F08230CA
:1044600009F46BC114C5853009F4F7C308F466C3B9
:10447000863009F46DC40BC564817581072E000C6C
:10448000880B990B0E94A72B6093E9037093EA03B2
:104490008093EB039093EC031092E1031092E203FC
:1044A0001092E3031092E403609182027091830200
:1044B00080918402909185020E94A72B9B01AC0100
:1044C00060E070E0CB010E948B2A6B017C0120E050
:1044D00030E0A9010E94572C18161CF4C701B60140
:1044E00003C0C701B60190580E94762B7093140246
:1044F0006093130280918D0282FF29C00E9474187C
:104500006091C5027091C602072E000C880B990BB2
:104510000E94A72B6B017C012091CD023091CE022D
:104520004091CF025091D0026091E5037091E60373
:104530008091E7039091E8030E945C2C2091D702C0
:104540003091D8024091D9025091DA0292C4809100
:10455000FB029091FC026817790708F0B6C081E071
:1045600020910704309108042130310509F080E0E2
:1045700080932804C12CD12C80E8E82E8FE3F82EFC
:10458000C092ED03D092EE03E092EF03F092F003BD
:104590001092F1031092F2031092F3031092F403BD
:1045A0001092F5031092F6031092F7031092F8039D
:1045B00060911B0470911C0480911D0490911E0455
:1045C0000E94A52B20E030E04AE754E40E94FD2A37
:1045D0006B017C0120E030E040E85FE32093F903C9
:1045E0003093FA034093FB035093FC0320E030E048
:1045F000A9010E945C2C2B013C016093FD03709388
:10460000FE038093FF0390930004A701960160E0EE
:1046100070E0CB010E94FD2A6B017C0160930104D4
:104620007093020480930304909304048091050422
:1046300090910604019751F580E090E0A0E8BFEB6F
:104640008093F9039093FA03A093FB03B093FC03C8
:10465000A301920160E070E0CB010E948B2A60937D
:10466000FD037093FE038093FF0390930004A70162
:10467000960160E070E0CB010E948B2A60930104F8
:104680007093020480930304909304040E947418AE
:104690006091C5027091C602072E000C880B990B21
:1046A0000E94A72B6B017C012091CD023091CE029C
:1046B0004091CF025091D0026091E5037091E603E2
:1046C0008091E7039091E80323C09A9CF0019B9CA2
:1046D000F00D1124E859FE4F048115816091C50247
:1046E0007091C602072E000C880B990B0E94A72B15
:1046F0006B017C01B801110F880B990B0E94A72B4D
:104700002091CD023091CE024091CF025091D00243
:104710000E945C2C2091D7023091D8024091D9029E
:104720005091DA020E945C2C2091EF023091F0024D
:104730004091F1025091F2029CC36289738980E03A
:1047400090E00E94A52B9B01AC0160E070E088EC3A
:1047500092E40E94FD2A2B013C01609311037093A7
:1047600012038093130390931403F8010480F581DE
:10477000E02DF88BEF870E94AE086B017C012BEDDA
:104780003FE049EC50E4C301B2010E945C2C2B01D4
:104790003C01C701B6010E94A52B9B01AC01C301DE
:1047A000B2010E945C2C0E94C92C9B01AC01CF84F9
:1047B000D888B601DD0C880B990B298B3A8B4B8B73
:1047C0005C8B0E94A72B29893A894B895C890E94BE
:1047D0005C2C0E946F2B6B017C01D8011C968D9183
:1047E0009C911D9714962D913C911597821B930BCC
:1047F000092E000CAA0BBB0BC816D906EA06FB064D
:1048000044F4F801C484D58484819581C81AD90AF6
:104810001BC0D8011C962D913C911D9714968D912B
:104820009C911597820F931F092E000CAA0BBB0BAE
:104830008C159D05AE05BF055CF4F801C484D584D4
:1048400084819581C80ED91E0D2C000CEE08FF083E
:10485000C092C702D092C802E092C902F092CA0286
:104860006091C5027091C602072E000C880B990B4F
:104870000E94A72B2B013C01C701B6010E94A72B68
:104880002091CD023091CE024091CF025091D002C2
:104890000E945C2C2091DB023091DC024091DD0211
:1048A0005091DE020E945C2C2091F7023091F802B8
:1048B0004091F9025091FA020E945C2C9B01AC01DC
:1048C000C301B2010E948C2A0E946F2B7093C60212
:1048D0006093C50280918D0282FFA1C06091820227
:1048E0007091830280918402909185020E94A72B8F
:1048F0006093E9037093EA038093EB039093EC03D6
:104900009A9C80019B9C100D112408591E4FD801C0
:104910001C966D917C911D97072E000C880B990BAE
:104920000E94A72B6093E1037093E2038093E3035B
:104930009093E4030E947418F8016085718580E00B
:1049400090E00E94A52B2091E5033091E603409171
:10495000E7035091E8030E945C2C20E030E44CE136
:1049600056E40E94FD2A0E946F2B2B013C01D801C6
:104970001A968D919C911B97919581959109092E7D
:10498000000CAA0BBB0B481659066A067B063CF4C2
:10499000F8014284538451944194510811C0D801C4
:1049A0001A968D919C911B97092E000CAA0BBB0B9C
:1049B00084159505A605B7053CF4F8014284538497
:1049C000052C000C660877084092C7025092C80276
:1049D0006092C9027092CA026091C5027091C602CB
:1049E000072E000C880B990B0E94A72B6B017C01F2
:1049F000C301B2010E94A72B2091CD023091CE02BB
:104A00004091CF025091D0020E945C2C2091DF0295
:104A10003091E0024091E1025091E2022AC29A9C58
:104A200080019B9C100D112408591E4FD801189627
:104A30006D917C9119971C968D919C911D97092ED3
:104A4000000CAA0BBB0BC0908202D0908302E090B6
:104A50008402F0908502A7019601281B390B4A0BAE
:104A60005B0BDB010E94472A20E137E240E050E087
:104A70000E94282AF8018285938591958195910954
:104A8000092E000CAA0BBB0B281739074A075B0736
:104A900034F4228533853195219531090EC0828504
:104AA0009385092E000CAA0BBB0B82179307A40752
:104AB000B5073CF4F80122853385032E000C440B26
:104AC000550B2093C7023093C8024093C9025093FC
:104AD000CA026091C5027091C602072E000C880BB5
:104AE000990B298B3A8B4B8B5C8B0E94A72B6B010C
:104AF0007C0129893A894B895C89CA01B9010E94E4
:104B0000A72B2091CD023091CE024091CF0250913F
:104B1000D0020E945C2C2091DF023091E002409193
:104B2000E1025091E2020E945C2C2091F30230914C
:104B3000F4024091F5025091F6029BC1C09003032C
:104B4000D09004030D2C000CEE08FF088091820227
:104B500090918302A0918402B0918502BC01CD01A5
:104B60006C197D098E099F0920910D0330910E0368
:104B700040910F03509110030E945A2A3093FE0275
:104B80002093FD02D80118966D917C9119971C967F
:104B90008D919C911D976901C81AD90AC69EC001C2
:104BA000C79E900DD69E900D1124B1010E94592DE3
:104BB0002B01612C712CF80182859385919581954B
:104BC0009109092E000CAA0BBB0B481659066A0660
:104BD0007B0634F4428453845194419451080EC0AE
:104BE00082859385092E000CAA0BBB0B84159505B5
:104BF000A605B7053CF4F80142845384052C000C4B
:104C0000660877084092C7025092C8026092C902B3
:104C10007092CA026091C5027091C602072E000C04
:104C2000880B990B0E94A72B6B017C01C301B20179
:104C30000E94A72B2091CD023091CE024091CF024D
:104C40005091D0020E945C2C2091E3023091E4024A
:104C50004091E5025091E6020CC16085718580911A
:104C6000030390910403092E000CAA0BBB0BC09008
:104C70008202D0908302E0908402F0908502A70126
:104C80009601281B390B4A0B5B0BDB010E94472A5C
:104C900020E137E240E050E00E94282AF8018285B6
:104CA0009385919581959109092E000CAA0BBB0B58
:104CB000281739074A075B0734F422853385319575
:104CC000219531090EC082859385092E000CAA0B0F
:104CD000BB0B82179307A407B5073CF4F8012285A4
:104CE0003385032E000C440B550B2093C7023093E1
:104CF000C8024093C9025093CA026091C5027091E4
:104D0000C602072E000C880B990B298B3A8B4B8B14
:104D10005C8B0E94A72B6B017C0129893A894B8906
:104D20005C89CA01B9010E94A72B2091CD02309164
:104D3000CE024091CF025091D0020E945C2C209173
:104D4000EB023091EC024091ED025091EE0291C0E5
:104D5000C0900303D09004030D2C000CEE08FF0854
:104D60008091820290918302A0918402B091850289
:104D7000BC01CD016C197D098E099F0920910D039D
:104D800030910E0340910F03509110030E945A2A54
:104D90003093FE022093FD028091FF029091000368
:104DA000281B390B3093020320930103D801189676
:104DB0004D915C911997249FC001259F900D349FC0
:104DC000900D1124B1010E94592D2B01612C712CE1
:104DD000F80182859385919581959109092E000CA2
:104DE000AA0BBB0B481659066A067B0634F44284AC
:104DF00053845194419451080EC082859385092EA5
:104E0000000CAA0BBB0B84159505A605B7053CF451
:104E1000F80142845384052C000C66087708409200
:104E2000C7025092C8026092C9027092CA02609191
:104E3000C5027091C602072E000C880B990B0E94C8
:104E4000A72B6B017C01C301B2010E94A72B20910B
:104E5000CD023091CE024091CF025091D0020E94FB
:104E60005C2C2091E7023091E8024091E9025091D8
:104E7000EA020E945C2C9B01AC01C701B6010E94B2
:104E80008C2A0E946F2B7093C6026093C502FFEFBD
:104E9000AF1ABF0A28E0A216B10409F0CECA809169
:104EA0008D0280FF44C08091C5029091C60297FF99
:104EB00006C021E02093CC021092CB0207C00097DD
:104EC00029F01092CC0221E02093CB020E94071817
:104ED0008091820290918302A0918402B091850218
:104EE000811530E893073FEFA307B30731F481E062
:104EF0008093CC021092CB020AC08F3F9F47A1053E
:104F0000B10559F41092CC0281E08093CB028091DC
:104F1000D5029091D6020E9407186091CC028AE0D7
:104F20000E9415086091CB0288E00E9415088091CC
:104F30008D0281FF30C08091C5029091C6020E940F
:104F400007188091C5029091C6020E944318809173
:104F5000820290918302A0918402B0918502811512
:104F600050E895075FEFA507B50751F48091D5028A
:104F70009091D6029195819591090E9407180BC0D6
:104F80008F3F9F47A105B10531F48091D5029091E3
:104F9000D6020E9443180E94AE0860938F0270935D
:104FA00090028093910290939202009109031091D4
:104FB0000A0320910B0330910C036B017C01C01A92
:104FC000D10AE20AF30A97018601C0920D03D0923A
:104FD0000E03E0920F03F0921003C0900503D090EF
:104FE0000603E0900703F09008030C151D052E053D
:104FF0003F05C0F020918202309183023093040378
:10500000209303036093090370930A0380930B03B7
:1050100090930C038091FD029091FE029093000307
:105020008093FF0280E090E0892B11F40C942E1EF7
:105030000E9400000C942E1E0F931F93CF93DF93BA
:105040001092A7041092A60488EE93E0A0E0B0E0CE
:105050008093A8049093A904A093AA04B093AB04EE
:105060008BE491E09093A5048093A4048FEF9FEFCD
:105070009093B1048093B0041092370410923B04D3
:1050800010923A0410923C048DE591E0909336041E
:105090008093350480E090E0FC01EB5CFB4F148EC4
:1050A00010A2178E11A206968C339105A9F78AE1FA
:1050B00091E0909398048093970486E191E0909317
:1050C0009A048093990485E080939B0484E0809304
:1050D0009C048FE191E090939604809395048AE07C
:1050E00090E090939E0480939D0484EF91E09093D0
:1050F000A00480939F041092A3041092A204109223
:1051000091041092920410929304109294041092BD
:10511000A10462E080E00E94490862E081E00E9410
:105120004908E9ECF5E0E491F0E0EE0FFF1FE554EB
:10513000FA4FA591B491B0932A04A0932904ECE905
:10514000F5E0849180932D04EAECF5E0E491F0E041
:10515000EE0FFF1FE554FA4FC591D491D0932C0464
:10516000C0932B04EDE9F5E0E491E0932E04109256
:105170003004109231041092320410923304EBE3A5
:10518000FFE13197F1F7EC91E82381E009F480E049
:10519000288190912E04922309F0826029E234E064
:1051A00080932F0430935802209357028BEE92E1A4
:1051B0009093110180931001809169008F7C806130
:1051C00080936900EA9AC1E0C093340430935A0294
:1051D0002093590285EE92E190931301809312017E
:1051E000809169008F73806480936900EB9A82E0FC
:1051F0008093340485EE93E090930C0480930B0429
:1052000089EE93E090930A048093090481EE93E081
:1052100090930E0480930D041092270410921F04A3
:1052200010922004109221041092220480E090E059
:10523000AFE7B3E48093230490932404A093250460
:10524000B093260484E690E0A0E0B0E080931B04D5
:1052500090931C04A0931D04B0931E0481E090E081
:10526000909306048093050410920804109207049A
:105270001092280480E090E0A0E8BFE38093ED0363
:105280009093EE03A093EF03B093F0031092F10319
:105290001092F2031092F3031092F4031092F503AC
:1052A0001092F6031092F7031092F8031092FD0388
:1052B0001092FE031092FF0310920004109201045A
:1052C00010920204109203041092040480E090E013
:1052D000A0E8BFEB8093F9039093FA03A093FB033C
:1052E000B093FC030E94AE0800911B0410911C04B3
:1052F00020911D0430911E04DC01CB01801B910B19
:10530000A20BB30B80930F0490931004A09311048D
:10531000B09312040AE017ED23E23CE341E062E1BE
:1053200070E08FEB93E00E94790B0AE017ED23E227
:105330003CE341E063E170E08DE993E00E94790B8A
:105340000AE017ED23E23CE341E064E170E08BE723
:1053500093E00E94790B0AE017ED23E23CE341E081
:1053600065E170E089E593E00E94790B0AE017EDB2
:1053700023E23CE341E066E170E087E393E00E94D2
:10538000790B0AE017ED23E23CE341E067E170E0CE
:1053900085E193E00E94790B10929302109294029F
:1053A0001092950210929602109297028091FA0440
:1053B000811112C01092F5041092F40482EC91E075
:1053C0009093F7048093F6048AED93E09093F904A8
:1053D0008093F804C093FA040E942B12FC01A18967
:1053E000B289109729F484EF94E0928B818B0BC0E3
:1053F0008D919C911197009711F0DC01F9CF84EF0A
:1054000094E08D939C93238934898091F804909142
:10541000F904820F931F948B838BDF91CF911F919F
:105420000F910895F999FECF92BD81BDF89A992701
:1054300080B50895262FF999FECF1FBA92BD81BD80
:1054400020BD0FB6F894FA9AF99A0FBE0196089506
:10545000052E97FB1EF400940E943F2A57FD07D0AB
:105460000E945A2A07FC03D04EF40C943F2A509510
:105470004095309521953F4F4F4F5F4F0895909540
:105480008095709561957F4F8F4F9F4F08950E9433
:105490007C2AA59F900DB49F900DA49F800D911D17
:1054A00011240895B7FF0C94472A0E94472A821BB3
:1054B000930B0895A1E21A2EAA1BBB1BFD010DC080
:1054C000AA1FBB1FEE1FFF1FA217B307E407F507B4
:1054D00020F0A21BB30BE40BF50B661F771F881F90
:1054E000991F1A9469F760957095809590959B0126
:1054F000AC01BD01CF010895A29FB001B39FC001CF
:10550000A39F700D811D1124911DB29F700D811DEF
:105510001124911D08955058BB27AA270E94A32A41
:105520000C941D2C0E940F2C38F00E94162C20F099
:1055300039F49F3F19F426F40C940C2C0EF4E095EA
:10554000E7FB0C94062CE92F0E942E2C58F3BA1777
:10555000620773078407950720F079F4A6F50C9489
:10556000502C0EF4E0950B2EBA2FA02D0B01B90193
:1055700090010C01CA01A0011124FF27591B99F0C9
:10558000593F50F4503E68F11A16F040A22F232FD5
:10559000342F4427585FF3CF469537952795A79525
:1055A000F0405395C9F77EF41F16BA0B620B730BCC
:1055B000840BBAF09150A1F0FF0FBB1F661F771F3D
:1055C000881FC2F70EC0BA0F621F731F841F48F4F2
:1055D000879577956795B795F7959E3F08F0B0CF7B
:1055E0009395880F08F09927EE0F97958795089562
:1055F0000E94E22B08F481E008950E94112B0C9484
:105600001D2C0E94162C58F00E940F2C40F029F4FB
:105610005F3F29F00C94062C51110C94512C0C94E2
:105620000C2C0E942E2C68F39923B1F3552391F38F
:10563000951B550BBB27AA2762177307840738F001
:105640009F5F5F4F220F331F441FAA1FA9F335D05E
:105650000E2E3AF0E0E832D091505040E695001C12
:10566000CAF72BD0FE2F29D0660F771F881FBB1FCC
:10567000261737074807AB07B0E809F0BB0B802DAA
:10568000BF01FF2793585F4F3AF09E3F510578F0D6
:105690000C94062C0C94512C5F3FE4F3983ED4F309
:1056A000869577956795B795F7959F5FC9F7880FAA
:1056B000911D9695879597F90895E1E0660F771FFC
:1056C000881FBB1F621773078407BA0720F0621B8D
:1056D000730B840BBA0BEE1F88F7E09508950E94B8
:1056E000762B6894B1110C94512C08950E94362C9D
:1056F00088F09F5798F0B92F9927B751B0F0E1F093
:10570000660F771F881F991F1AF0BA95C9F714C042
:10571000B13091F00E94502CB1E008950C94502CBF
:10572000672F782F8827B85F39F0B93FCCF386957B
:1057300077956795B395D9F73EF4909580957095D8
:1057400061957F4F8F4F9F4F0895E89409C097FB55
:105750003EF490958095709561957F4F8F4F9F4F48
:105760009923A9F0F92F96E9BB279395F69587958C
:1057700077956795B795F111F8CFFAF4BB0F11F44F
:1057800060FF1BC06F5F7F4F8F4F9F4F16C08823F6
:1057900011F096E911C0772321F09EE8872F762F2C
:1057A00005C0662371F096E8862F70E060E02AF06D
:1057B0009A95660F771F881FDAF7880F9695879559
:1057C00097F90895990F0008550FAA0BE0E8FEEF2E
:1057D00016161706E807F907C0F012161306E407B5
:1057E000F50798F0621B730B840B950B39F40A26AE
:1057F00061F0232B242B252B21F408950A2609F48C
:10580000A140A6958FEF811D811D089597F99F678F
:1058100080E870E060E008959FEF80EC0895002438
:105820000A941616170618060906089500240A9405
:1058300012161306140605060895092E0394000C8B
:1058400011F4882352F0BB0F40F4BF2B11F460FF1A
:1058500004C06F5F7F4F8F4F9F4F089557FD905843
:10586000440F551F59F05F3F71F04795880F97FB24
:10587000991F61F09F3F79F08795089512161306DE
:105880001406551FF2CF4695F1DF08C0161617060D
:105890001806991FF1CF8695710561050894089542
:1058A000E894BB2766277727CB0197F908950E94D4
:1058B000E22B08F48FEF08950E946F2C0C941D2C9E
:1058C0000E940F2C38F00E94162C20F0952311F026
:1058D0000C94062C0C940C2C11240C94512C0E942A
:1058E0002E2C70F3959FC1F3950F50E0551F629FCA
:1058F000F001729FBB27F00DB11D639FAA27F00D29
:10590000B11DAA1F649F6627B00DA11D661F829F4F
:105910002227B00DA11D621F739FB00DA11D621F34
:10592000839FA00D611D221F749F3327A00D611D51
:10593000231F849F600D211D822F762F6A2F112433
:105940009F5750409AF0F1F088234AF0EE0FFF1F66
:10595000BB1F661F771F881F91505040A9F79E3FBD
:10596000510580F00C94062C0C94512C5F3FE4F30D
:10597000983ED4F3869577956795B795F795E79513
:105980009F5FC1F7FE2B880F911D9695879597F91C
:1059900008959F930E94D32C0F9007FCEE5F0C9408
:1059A000FC2C0C940C2C0E94362CD8F3E894E0E0EC
:1059B000BB279F57F0F02AED3FE049EC06C0EE0F01
:1059C000BB0F661F771F881F28F0B23A6207730764
:1059D000840728F0B25A620B730B840BE3959A95F7
:1059E00072F7803830F49A95BB0F661F771F881FB7
:1059F000D2F790480C94122DEF93E0FF07C0A2EA73
:105A00002AED3FE049EC5FEB0E94A32A0E941D2C87
:105A10000F90039401FC9058ECEEF0E00C941E2DD6
:105A20009F3F31F0915020F4879577956795B79512
:105A3000880F911D9695879597F908959F938F9359
:105A40007F936F93FF93EF939B01AC010E945C2CBB
:105A5000EF91FF910E94322D2F913F914F915F91D5
:105A60000C945C2CDF93CF931F930F93FF92EF92D4
:105A7000DF927B018C01689406C0DA2EEF010E9450
:105A80006F2CFE01E894A591259135914591559192
:105A9000A6F3EF010E94A32AFE019701A801DA9460
:105AA00069F7DF90EF90FF900F911F91CF91DF91F9
:105AB0000895AA1BBB1B51E107C0AA1FBB1FA61755
:105AC000B70710F0A61BB70B881F991F5A95A9F7A7
:105AD00080959095BC01CD010895EE0FFF1F0590B4
